{
  "contractName": "Nostradamus",
  "abi": [
    {
      "inputs": [],
      "payable": false,
      "stateMutability": "nonpayable",
      "type": "constructor"
    },
    {
      "anonymous": false,
      "inputs": [
        {
          "indexed": true,
          "internalType": "address",
          "name": "who",
          "type": "address"
        },
        {
          "indexed": true,
          "internalType": "bytes32",
          "name": "exact",
          "type": "bytes32"
        },
        {
          "indexed": false,
          "internalType": "bytes32",
          "name": "braggingRights",
          "type": "bytes32"
        }
      ],
      "name": "LogProphecised",
      "type": "event"
    },
    {
      "constant": true,
      "inputs": [
        {
          "internalType": "address",
          "name": "",
          "type": "address"
        }
      ],
      "name": "prophets",
      "outputs": [
        {
          "internalType": "bool",
          "name": "",
          "type": "bool"
        }
      ],
      "payable": false,
      "stateMutability": "view",
      "type": "function"
    },
    {
      "constant": false,
      "inputs": [
        {
          "internalType": "bytes32",
          "name": "exact",
          "type": "bytes32"
        },
        {
          "internalType": "bytes32",
          "name": "braggingRights",
          "type": "bytes32"
        }
      ],
      "name": "prophecise",
      "outputs": [],
      "payable": false,
      "stateMutability": "nonpayable",
      "type": "function"
    },
    {
      "constant": true,
      "inputs": [],
      "name": "theWord",
      "outputs": [
        {
          "internalType": "bytes32",
          "name": "exact",
          "type": "bytes32"
        }
      ],
      "payable": false,
      "stateMutability": "view",
      "type": "function"
    }
  ],
  "bytecode": "0x608060405234801561001057600080fd5b5061036c806100206000396000f3fe608060405234801561001057600080fd5b50600436106100415760003560e01c8063551336c51461004657806396570f4c1461007e578063b58e60db146100da575b600080fd5b61007c6004803603604081101561005c57600080fd5b8101908080359060200190929190803590602001909291905050506100f8565b005b6100c06004803603602081101561009457600080fd5b81019080803573ffffffffffffffffffffffffffffffffffffffff16906020019092919050505061025f565b604051808215151515815260200191505060405180910390f35b6100e261027f565b6040518082815260200191505060405180910390f35b6000439050600081409050833383834230604051602001808673ffffffffffffffffffffffffffffffffffffffff1673ffffffffffffffffffffffffffffffffffffffff1660601b81526014018581526020018481526020018381526020018273ffffffffffffffffffffffffffffffffffffffff1673ffffffffffffffffffffffffffffffffffffffff1660601b81526014019550505050505060405160208183030381529060405280519060200120146101b357600080fd5b60016000803373ffffffffffffffffffffffffffffffffffffffff1673ffffffffffffffffffffffffffffffffffffffff16815260200190815260200160002060006101000a81548160ff021916908315150217905550833373ffffffffffffffffffffffffffffffffffffffff167f8c359d4546ada2b6550ab91a88e8affd49a00aaa37e65015d1b8bf3b83fa20b9856040518082815260200191505060405180910390a350505050565b60006020528060005260406000206000915054906101000a900460ff1681565b6000804390506000434090503381834230604051602001808673ffffffffffffffffffffffffffffffffffffffff1673ffffffffffffffffffffffffffffffffffffffff1660601b81526014018581526020018481526020018381526020018273ffffffffffffffffffffffffffffffffffffffff1673ffffffffffffffffffffffffffffffffffffffff1660601b81526014019550505050505060405160208183030381529060405280519060200120925050509056fea265627a7a7231582075e16198174ffcca135209c51f1d3976d4fda3336a1b12d64286a435f13bf80e64736f6c63430005100032",
  "source": "pragma solidity 0.5.16;\n\ncontract Nostradamus {\n    mapping (address => bool) public prophets;\n\n    event LogProphecised(address indexed who, bytes32 indexed exact, bytes32 braggingRights);\n\n    constructor() public {\n    }\n\n    function prophecise(bytes32 exact, bytes32 braggingRights) public {\n        uint blockNumber = block.number;\n        bytes32 blockHash = blockhash(blockNumber);\n        require(keccak256(abi.encodePacked(msg.sender, blockNumber, blockHash, block.timestamp, this)) == exact);\n        prophets[msg.sender] = true;\n        emit LogProphecised(msg.sender, exact, braggingRights);\n    }\n\n    function theWord() public view returns(bytes32 exact) {\n        uint blockNumber = block.number;\n        bytes32 blockHash =blockhash(block.number);\n        return keccak256(abi.encodePacked(msg.sender, blockHash, blockNumber, block.timestamp, this));\n    }\n}\n",
  "sourcePath": "/home/vagrant/DAPPS/b9lab/eth/eth-nostradamus/contracts/Nostradamus.sol",
  "compiler": {
    "name": "solc",
    "version": "0.5.16+commit.9c3226ce.Emscripten.clang"
  },
  "schemaVersion": "3.2.0",
  "updatedAt": "2020-06-23T17:44:24.632Z",
  "devdoc": {
    "methods": {}
  },
  "userdoc": {
    "methods": {}
  }
}