{
  "contractName": "Nostradamus",
  "abi": [
    {
      "constant": true,
      "inputs": [
        {
          "name": "",
          "type": "address"
        }
      ],
      "name": "prophets",
      "outputs": [
        {
          "name": "",
          "type": "bool"
        }
      ],
      "payable": false,
      "stateMutability": "view",
      "type": "function"
    },
    {
      "inputs": [],
      "payable": false,
      "stateMutability": "nonpayable",
      "type": "constructor"
    },
    {
      "anonymous": false,
      "inputs": [
        {
          "indexed": true,
          "name": "who",
          "type": "address"
        },
        {
          "indexed": true,
          "name": "exact",
          "type": "bytes32"
        },
        {
          "indexed": false,
          "name": "braggingRights",
          "type": "bytes32"
        }
      ],
      "name": "LogProphecised",
      "type": "event"
    },
    {
      "constant": false,
      "inputs": [
        {
          "name": "exact",
          "type": "bytes32"
        },
        {
          "name": "braggingRights",
          "type": "bytes32"
        }
      ],
      "name": "prophecise",
      "outputs": [],
      "payable": false,
      "stateMutability": "nonpayable",
      "type": "function"
    },
    {
      "constant": true,
      "inputs": [],
      "name": "theWord",
      "outputs": [
        {
          "name": "exact",
          "type": "bytes32"
        }
      ],
      "payable": false,
      "stateMutability": "view",
      "type": "function"
    }
  ],
  "bytecode": "0x608060405234801561001057600080fd5b506103d2806100206000396000f3fe608060405260043610610057576000357c0100000000000000000000000000000000000000000000000000000000900463ffffffff168063551336c51461005c57806396570f4c146100a1578063b58e60db1461010a575b600080fd5b34801561006857600080fd5b5061009f6004803603604081101561007f57600080fd5b810190808035906020019092919080359060200190929190505050610135565b005b3480156100ad57600080fd5b506100f0600480360360208110156100c457600080fd5b81019080803573ffffffffffffffffffffffffffffffffffffffff1690602001909291905050506102b6565b604051808215151515815260200191505060405180910390f35b34801561011657600080fd5b5061011f6102d6565b6040518082815260200191505060405180910390f35b6000439050600081409050833383834230604051602001808673ffffffffffffffffffffffffffffffffffffffff1673ffffffffffffffffffffffffffffffffffffffff166c010000000000000000000000000281526014018581526020018481526020018381526020018273ffffffffffffffffffffffffffffffffffffffff1673ffffffffffffffffffffffffffffffffffffffff166c01000000000000000000000000028152601401955050505050506040516020818303038152906040528051906020012014151561020a57600080fd5b60016000803373ffffffffffffffffffffffffffffffffffffffff1673ffffffffffffffffffffffffffffffffffffffff16815260200190815260200160002060006101000a81548160ff021916908315150217905550833373ffffffffffffffffffffffffffffffffffffffff167f8c359d4546ada2b6550ab91a88e8affd49a00aaa37e65015d1b8bf3b83fa20b9856040518082815260200191505060405180910390a350505050565b60006020528060005260406000206000915054906101000a900460ff1681565b6000804390506000434090503381834230604051602001808673ffffffffffffffffffffffffffffffffffffffff1673ffffffffffffffffffffffffffffffffffffffff166c010000000000000000000000000281526014018581526020018481526020018381526020018273ffffffffffffffffffffffffffffffffffffffff1673ffffffffffffffffffffffffffffffffffffffff166c010000000000000000000000000281526014019550505050505060405160208183030381529060405280519060200120925050509056fea165627a7a723058202b139e03da216bed08be6dab4e9b765c95841dfdd9c0e826f4abd3ec008f5c9d0029",
  "source": "pragma solidity 0.5.0;\n\ncontract Nostradamus {\n    mapping (address => bool) public prophets;\n\n    event LogProphecised(address indexed who, bytes32 indexed exact, bytes32 braggingRights);\n\n    constructor() public {\n    }\n\n    function prophecise(bytes32 exact, bytes32 braggingRights) public {\n        uint blockNumber = block.number;\n        bytes32 blockHash = blockhash(blockNumber);\n        require(keccak256(abi.encodePacked(msg.sender, blockNumber, blockHash, block.timestamp, this)) == exact);\n        prophets[msg.sender] = true;\n        emit LogProphecised(msg.sender, exact, braggingRights);\n    }\n\n    function theWord() public view returns(bytes32 exact) {\n        uint blockNumber = block.number;\n        bytes32 blockHash =blockhash(block.number);\n        return keccak256(abi.encodePacked(msg.sender, blockHash, blockNumber, block.timestamp, this));\n    }\n}\n",
  "sourcePath": "/home/vagrant/DAPPS/b9internal/nostradamus/contracts/Nostradamus.sol",
  "compiler": {
    "name": "solc",
    "version": "0.5.0+commit.1d4f565a.Emscripten.clang"
  },
  "schemaVersion": "3.0.3",
  "updatedAt": "2019-03-28T14:43:17.157Z",
  "devdoc": {
    "methods": {}
  },
  "userdoc": {
    "methods": {}
  }
}