{
  "contractName": "Nostradamus",
  "abi": [
    {
      "constant": true,
      "inputs": [
        {
          "name": "",
          "type": "address"
        }
      ],
      "name": "prophets",
      "outputs": [
        {
          "name": "",
          "type": "bool"
        }
      ],
      "payable": false,
      "stateMutability": "view",
      "type": "function"
    },
    {
      "inputs": [],
      "payable": false,
      "stateMutability": "nonpayable",
      "type": "constructor"
    },
    {
      "anonymous": false,
      "inputs": [
        {
          "indexed": true,
          "name": "who",
          "type": "address"
        },
        {
          "indexed": true,
          "name": "exact",
          "type": "bytes32"
        }
      ],
      "name": "LogProphecised",
      "type": "event"
    },
    {
      "constant": false,
      "inputs": [
        {
          "name": "exact",
          "type": "bytes32"
        }
      ],
      "name": "prophecise",
      "outputs": [],
      "payable": false,
      "stateMutability": "nonpayable",
      "type": "function"
    },
    {
      "constant": true,
      "inputs": [],
      "name": "theWord",
      "outputs": [
        {
          "name": "exact",
          "type": "bytes32"
        }
      ],
      "payable": false,
      "stateMutability": "view",
      "type": "function"
    }
  ],
  "bytecode": "0x6060604052341561000f57600080fd5b61038f8061001e6000396000f300606060405260043610610057576000357c0100000000000000000000000000000000000000000000000000000000900463ffffffff16806396570f4c1461005c578063b58e60db146100ad578063b9ad36b9146100de575b600080fd5b341561006757600080fd5b610093600480803573ffffffffffffffffffffffffffffffffffffffff16906020019091905050610105565b604051808215151515815260200191505060405180910390f35b34156100b857600080fd5b6100c0610125565b60405180826000191660001916815260200191505060405180910390f35b34156100e957600080fd5b6101036004808035600019169060200190919050506101ec565b005b60006020528060005260406000206000915054906101000a900460ff1681565b6000806000439150434090503381834230604051808673ffffffffffffffffffffffffffffffffffffffff1673ffffffffffffffffffffffffffffffffffffffff166c0100000000000000000000000002815260140185600019166000191681526020018481526020018381526020018273ffffffffffffffffffffffffffffffffffffffff1673ffffffffffffffffffffffffffffffffffffffff166c010000000000000000000000000281526014019550505050505060405180910390209250505090565b6000804391508140905082600019163383834230604051808673ffffffffffffffffffffffffffffffffffffffff1673ffffffffffffffffffffffffffffffffffffffff166c0100000000000000000000000002815260140185815260200184600019166000191681526020018381526020018273ffffffffffffffffffffffffffffffffffffffff1673ffffffffffffffffffffffffffffffffffffffff166c01000000000000000000000000028152601401955050505050506040518091039020600019161415156102bf57600080fd5b60016000803373ffffffffffffffffffffffffffffffffffffffff1673ffffffffffffffffffffffffffffffffffffffff16815260200190815260200160002060006101000a81548160ff02191690831515021790555082600019163373ffffffffffffffffffffffffffffffffffffffff167f314707ffb6d13b35141c5e27b722268c9b362d0734d3b1aab0d10f6fe910caa060405160405180910390a35050505600a165627a7a72305820671c463aecc2cc2d40cb81aa34778f45fd6cb11d4c87bab81ab06f3c2f3d1ccc0029",
  "source": "pragma solidity 0.4.21;\n\ncontract Nostradamus {\n    mapping (address => bool) public prophets;\n\n    event LogProphecised(address indexed who, bytes32 indexed exact);\n\n    function Nostradamus() public {\n    }\n\n    function prophecise(bytes32 exact) public {\n        uint blockNumber = block.number;\n        bytes32 blockHash = block.blockhash(blockNumber);\n        require(keccak256(msg.sender, blockNumber, blockHash, block.timestamp, this) == exact);\n        prophets[msg.sender] = true;\n        emit LogProphecised(msg.sender, exact);\n    }\n\n    function theWord() public view returns(bytes32 exact) {\n        uint blockNumber = block.number;\n        bytes32 blockHash =block.blockhash(block.number);\n        return keccak256(msg.sender, blockHash, blockNumber, block.timestamp, this);\n    }\n}\n",
  "sourcePath": "/home/vagrant/DAPPS/b9internal/nostradamus/contracts/Nostradamus.sol",
  "compiler": {
    "name": "solc",
    "version": "0.4.21+commit.dfe3193c.Emscripten.clang"
  },
  "schemaVersion": "2.0.0",
  "updatedAt": "2018-06-06T10:29:26.408Z"
}