{
  "contractName": "Nostradamus",
  "abi": [
    {
      "constant": true,
      "inputs": [
        {
          "name": "",
          "type": "address"
        }
      ],
      "name": "prophets",
      "outputs": [
        {
          "name": "",
          "type": "bool"
        }
      ],
      "payable": false,
      "stateMutability": "view",
      "type": "function"
    },
    {
      "inputs": [],
      "payable": false,
      "stateMutability": "nonpayable",
      "type": "constructor"
    },
    {
      "anonymous": false,
      "inputs": [
        {
          "indexed": true,
          "name": "who",
          "type": "address"
        },
        {
          "indexed": true,
          "name": "exact",
          "type": "bytes32"
        },
        {
          "indexed": false,
          "name": "braggingRights",
          "type": "bytes32"
        }
      ],
      "name": "LogProphecised",
      "type": "event"
    },
    {
      "constant": false,
      "inputs": [
        {
          "name": "exact",
          "type": "bytes32"
        },
        {
          "name": "braggingRights",
          "type": "bytes32"
        }
      ],
      "name": "prophecise",
      "outputs": [],
      "payable": false,
      "stateMutability": "nonpayable",
      "type": "function"
    },
    {
      "constant": true,
      "inputs": [],
      "name": "theWord",
      "outputs": [
        {
          "name": "exact",
          "type": "bytes32"
        }
      ],
      "payable": false,
      "stateMutability": "view",
      "type": "function"
    }
  ],
  "bytecode": "0x608060405234801561001057600080fd5b5061049f806100206000396000f300608060405260043610610057576000357c0100000000000000000000000000000000000000000000000000000000900463ffffffff168063551336c51461005c57806396570f4c1461009b578063b58e60db146100f6575b600080fd5b34801561006857600080fd5b5061009960048036038101908080356000191690602001909291908035600019169060200190929190505050610129565b005b3480156100a757600080fd5b506100dc600480360381019080803573ffffffffffffffffffffffffffffffffffffffff169060200190929190505050610320565b604051808215151515815260200191505060405180910390f35b34801561010257600080fd5b5061010b610340565b60405180826000191660001916815260200191505060405180910390f35b6000804391508140905083600019163383834230604051602001808673ffffffffffffffffffffffffffffffffffffffff1673ffffffffffffffffffffffffffffffffffffffff166c0100000000000000000000000002815260140185815260200184600019166000191681526020018381526020018273ffffffffffffffffffffffffffffffffffffffff1673ffffffffffffffffffffffffffffffffffffffff166c01000000000000000000000000028152601401955050505050506040516020818303038152906040526040518082805190602001908083835b60208310151561022b5780518252602082019150602081019050602083039250610206565b6001836020036101000a03801982511681845116808217855250505050505090500191505060405180910390206000191614151561026857600080fd5b60016000803373ffffffffffffffffffffffffffffffffffffffff1673ffffffffffffffffffffffffffffffffffffffff16815260200190815260200160002060006101000a81548160ff02191690831515021790555083600019163373ffffffffffffffffffffffffffffffffffffffff167f8c359d4546ada2b6550ab91a88e8affd49a00aaa37e65015d1b8bf3b83fa20b98560405180826000191660001916815260200191505060405180910390a350505050565b60006020528060005260406000206000915054906101000a900460ff1681565b6000806000439150434090503381834230604051602001808673ffffffffffffffffffffffffffffffffffffffff1673ffffffffffffffffffffffffffffffffffffffff166c0100000000000000000000000002815260140185600019166000191681526020018481526020018381526020018273ffffffffffffffffffffffffffffffffffffffff1673ffffffffffffffffffffffffffffffffffffffff166c01000000000000000000000000028152601401955050505050506040516020818303038152906040526040518082805190602001908083835b60208310151561043f578051825260208201915060208101905060208303925061041a565b6001836020036101000a038019825116818451168082178552505050505050905001915050604051809103902092505050905600a165627a7a723058206dc603e5e5c7c05bd2e9a73f67dad70ef8c461943d9a42f5a3b895c6713cb7980029",
  "source": "pragma solidity 0.4.24;\n\ncontract Nostradamus {\n    mapping (address => bool) public prophets;\n\n    event LogProphecised(address indexed who, bytes32 indexed exact, bytes32 braggingRights);\n\n    constructor() public {\n    }\n\n    function prophecise(bytes32 exact, bytes32 braggingRights) public {\n        uint blockNumber = block.number;\n        bytes32 blockHash = blockhash(blockNumber);\n        require(keccak256(abi.encodePacked(msg.sender, blockNumber, blockHash, block.timestamp, this)) == exact);\n        prophets[msg.sender] = true;\n        emit LogProphecised(msg.sender, exact, braggingRights);\n    }\n\n    function theWord() public view returns(bytes32 exact) {\n        uint blockNumber = block.number;\n        bytes32 blockHash =blockhash(block.number);\n        return keccak256(abi.encodePacked(msg.sender, blockHash, blockNumber, block.timestamp, this));\n    }\n}\n",
  "sourcePath": "/Users/xavier/DAPPS/b9internal/nostradamus/contracts/Nostradamus.sol",
  "compiler": {
    "name": "solc",
    "version": "0.4.24+commit.e67f0147.Emscripten.clang"
  },
  "schemaVersion": "2.0.1",
  "updatedAt": "2018-08-24T14:36:17.617Z"
}