{
  "contractName": "Nostradamus",
  "abi": [
    {
      "constant": true,
      "inputs": [
        {
          "name": "",
          "type": "address"
        }
      ],
      "name": "prophets",
      "outputs": [
        {
          "name": "",
          "type": "bool"
        }
      ],
      "payable": false,
      "stateMutability": "view",
      "type": "function"
    },
    {
      "inputs": [],
      "payable": false,
      "stateMutability": "nonpayable",
      "type": "constructor"
    },
    {
      "anonymous": false,
      "inputs": [
        {
          "indexed": true,
          "name": "who",
          "type": "address"
        },
        {
          "indexed": true,
          "name": "exact",
          "type": "bytes32"
        }
      ],
      "name": "LogProphecised",
      "type": "event"
    },
    {
      "constant": false,
      "inputs": [
        {
          "name": "exact",
          "type": "bytes32"
        }
      ],
      "name": "prophecise",
      "outputs": [],
      "payable": false,
      "stateMutability": "nonpayable",
      "type": "function"
    },
    {
      "constant": true,
      "inputs": [],
      "name": "theWord",
      "outputs": [
        {
          "name": "exact",
          "type": "bytes32"
        }
      ],
      "payable": false,
      "stateMutability": "view",
      "type": "function"
    }
  ],
  "bytecode": "0x608060405234801561001057600080fd5b5061047d806100206000396000f300608060405260043610610057576000357c0100000000000000000000000000000000000000000000000000000000900463ffffffff16806396570f4c1461005c578063b58e60db146100b7578063b9ad36b9146100ea575b600080fd5b34801561006857600080fd5b5061009d600480360381019080803573ffffffffffffffffffffffffffffffffffffffff16906020019092919050505061011b565b604051808215151515815260200191505060405180910390f35b3480156100c357600080fd5b506100cc61013b565b60405180826000191660001916815260200191505060405180910390f35b3480156100f657600080fd5b50610119600480360381019080803560001916906020019092919050505061026e565b005b60006020528060005260406000206000915054906101000a900460ff1681565b6000806000439150434090503381834230604051602001808673ffffffffffffffffffffffffffffffffffffffff1673ffffffffffffffffffffffffffffffffffffffff166c0100000000000000000000000002815260140185600019166000191681526020018481526020018381526020018273ffffffffffffffffffffffffffffffffffffffff1673ffffffffffffffffffffffffffffffffffffffff166c01000000000000000000000000028152601401955050505050506040516020818303038152906040526040518082805190602001908083835b60208310151561023a5780518252602082019150602081019050602083039250610215565b6001836020036101000a03801982511681845116808217855250505050505090500191505060405180910390209250505090565b6000804391508140905082600019163383834230604051602001808673ffffffffffffffffffffffffffffffffffffffff1673ffffffffffffffffffffffffffffffffffffffff166c0100000000000000000000000002815260140185815260200184600019166000191681526020018381526020018273ffffffffffffffffffffffffffffffffffffffff1673ffffffffffffffffffffffffffffffffffffffff166c01000000000000000000000000028152601401955050505050506040516020818303038152906040526040518082805190602001908083835b602083101515610370578051825260208201915060208101905060208303925061034b565b6001836020036101000a0380198251168184511680821785525050505050509050019150506040518091039020600019161415156103ad57600080fd5b60016000803373ffffffffffffffffffffffffffffffffffffffff1673ffffffffffffffffffffffffffffffffffffffff16815260200190815260200160002060006101000a81548160ff02191690831515021790555082600019163373ffffffffffffffffffffffffffffffffffffffff167f314707ffb6d13b35141c5e27b722268c9b362d0734d3b1aab0d10f6fe910caa060405160405180910390a35050505600a165627a7a723058207abc56b0a0b22dd48b9b42c855ccb9546eaec24fbc95786e3d1830aadf7cd3650029",
  "source": "pragma solidity 0.4.24;\n\ncontract Nostradamus {\n    mapping (address => bool) public prophets;\n\n    event LogProphecised(address indexed who, bytes32 indexed exact);\n\n    constructor() public {\n    }\n\n    function prophecise(bytes32 exact) public {\n        uint blockNumber = block.number;\n        bytes32 blockHash = blockhash(blockNumber);\n        require(keccak256(abi.encodePacked(msg.sender, blockNumber, blockHash, block.timestamp, this)) == exact);\n        prophets[msg.sender] = true;\n        emit LogProphecised(msg.sender, exact);\n    }\n\n    function theWord() public view returns(bytes32 exact) {\n        uint blockNumber = block.number;\n        bytes32 blockHash =blockhash(block.number);\n        return keccak256(abi.encodePacked(msg.sender, blockHash, blockNumber, block.timestamp, this));\n    }\n}\n",
  "sourcePath": "/home/vagrant/DAPPS/b9internal/nostradamus/contracts/Nostradamus.sol",
  "compiler": {
    "name": "solc",
    "version": "0.4.24+commit.e67f0147.Emscripten.clang"
  },
  "schemaVersion": "2.0.1",
  "updatedAt": "2018-07-18T09:56:47.955Z"
}