{
  "contractName": "Prophet",
  "abi": [
    {
      "constant": false,
      "inputs": [
        {
          "internalType": "contract Nostradamus",
          "name": "nostra",
          "type": "address"
        },
        {
          "internalType": "bytes32",
          "name": "braggingRights",
          "type": "bytes32"
        }
      ],
      "name": "propheciseWith",
      "outputs": [],
      "payable": false,
      "stateMutability": "nonpayable",
      "type": "function"
    }
  ],
  "bytecode": "0x608060405234801561001057600080fd5b50610299806100206000396000f3fe608060405234801561001057600080fd5b506004361061002b5760003560e01c8063e8afb5b614610030575b600080fd5b61007c6004803603604081101561004657600080fd5b81019080803573ffffffffffffffffffffffffffffffffffffffff1690602001909291908035906020019092919050505061007e565b005b60004390506000814090508373ffffffffffffffffffffffffffffffffffffffff1663551336c53084844289604051602001808673ffffffffffffffffffffffffffffffffffffffff1673ffffffffffffffffffffffffffffffffffffffff1660601b81526014018581526020018481526020018381526020018273ffffffffffffffffffffffffffffffffffffffff1673ffffffffffffffffffffffffffffffffffffffff1660601b81526014019550505050505060405160208183030381529060405280519060200120856040518363ffffffff1660e01b81526004018083815260200182815260200192505050600060405180830381600087803b15801561018857600080fd5b505af115801561019c573d6000803e3d6000fd5b505050508373ffffffffffffffffffffffffffffffffffffffff166396570f4c306040518263ffffffff1660e01b8152600401808273ffffffffffffffffffffffffffffffffffffffff1673ffffffffffffffffffffffffffffffffffffffff16815260200191505060206040518083038186803b15801561021d57600080fd5b505afa158015610231573d6000803e3d6000fd5b505050506040513d602081101561024757600080fd5b810190808051906020019092919050505061025e57fe5b5050505056fea265627a7a72315820bd8251a6fc2b6d75c5fa7416187714104417e49466645e5517db50974a26eb8b64736f6c63430005100032",
  "source": "pragma solidity 0.5.16;\n\nimport \"./Nostradamus.sol\";\n\ncontract Prophet {\n    function propheciseWith(Nostradamus nostra, bytes32 braggingRights) public {\n        uint blockNumber = block.number;\n        bytes32 blockHash = blockhash(blockNumber);\n        nostra.prophecise(keccak256(abi.encodePacked(this, blockNumber, blockHash, block.timestamp, nostra)), braggingRights);\n        assert(nostra.prophets(address(this)));\n    }\n}\n",
  "sourcePath": "/home/vagrant/DAPPS/b9lab/eth/eth-nostradamus/contracts/Prophet.sol",
  "compiler": {
    "name": "solc",
    "version": "0.5.16+commit.9c3226ce.Emscripten.clang"
  },
  "schemaVersion": "3.2.0",
  "updatedAt": "2020-06-23T17:44:24.635Z",
  "devdoc": {
    "methods": {}
  },
  "userdoc": {
    "methods": {}
  }
}