{
  "contractName": "Prophet",
  "abi": [
    {
      "constant": false,
      "inputs": [
        {
          "name": "nostra",
          "type": "address"
        },
        {
          "name": "braggingRights",
          "type": "bytes32"
        }
      ],
      "name": "propheciseWith",
      "outputs": [],
      "payable": false,
      "stateMutability": "nonpayable",
      "type": "function"
    }
  ],
  "bytecode": "0x608060405234801561001057600080fd5b50610305806100206000396000f3fe608060405260043610610041576000357c0100000000000000000000000000000000000000000000000000000000900463ffffffff168063e8afb5b614610046575b600080fd5b34801561005257600080fd5b5061009f6004803603604081101561006957600080fd5b81019080803573ffffffffffffffffffffffffffffffffffffffff169060200190929190803590602001909291905050506100a1565b005b60004390506000814090508373ffffffffffffffffffffffffffffffffffffffff1663551336c53084844289604051602001808673ffffffffffffffffffffffffffffffffffffffff1673ffffffffffffffffffffffffffffffffffffffff166c010000000000000000000000000281526014018581526020018481526020018381526020018273ffffffffffffffffffffffffffffffffffffffff1673ffffffffffffffffffffffffffffffffffffffff166c010000000000000000000000000281526014019550505050505060405160208183030381529060405280519060200120856040518363ffffffff167c01000000000000000000000000000000000000000000000000000000000281526004018083815260200182815260200192505050600060405180830381600087803b1580156101df57600080fd5b505af11580156101f3573d6000803e3d6000fd5b505050508373ffffffffffffffffffffffffffffffffffffffff166396570f4c306040518263ffffffff167c0100000000000000000000000000000000000000000000000000000000028152600401808273ffffffffffffffffffffffffffffffffffffffff1673ffffffffffffffffffffffffffffffffffffffff16815260200191505060206040518083038186803b15801561029057600080fd5b505afa1580156102a4573d6000803e3d6000fd5b505050506040513d60208110156102ba57600080fd5b810190808051906020019092919050505015156102d357fe5b5050505056fea165627a7a7230582060c2723808e906dd1c16dd3dac538ae78f88ef204745d1f21eab0db5834ce4420029",
  "source": "pragma solidity 0.5.0;\n\nimport \"./Nostradamus.sol\";\n\ncontract Prophet {\n    function propheciseWith(Nostradamus nostra, bytes32 braggingRights) public {\n        uint blockNumber = block.number;\n        bytes32 blockHash = blockhash(blockNumber);\n        nostra.prophecise(keccak256(abi.encodePacked(this, blockNumber, blockHash, block.timestamp, nostra)), braggingRights);\n        assert(nostra.prophets(address(this)));\n    }\n}",
  "sourcePath": "/home/vagrant/DAPPS/b9internal/nostradamus/contracts/Prophet.sol",
  "compiler": {
    "name": "solc",
    "version": "0.5.0+commit.1d4f565a.Emscripten.clang"
  },
  "schemaVersion": "3.0.3",
  "updatedAt": "2019-03-28T14:43:17.139Z",
  "devdoc": {
    "methods": {}
  },
  "userdoc": {
    "methods": {}
  }
}